{
  "contractName": "Decentragram",
  "abi": [
    {
      "anonymous": false,
      "inputs": [
        {
          "indexed": false,
          "internalType": "uint256",
          "name": "image_id",
          "type": "uint256"
        },
        {
          "indexed": false,
          "internalType": "string",
          "name": "name",
          "type": "string"
        },
        {
          "indexed": false,
          "internalType": "string",
          "name": "description",
          "type": "string"
        },
        {
          "indexed": false,
          "internalType": "string",
          "name": "hash",
          "type": "string"
        },
        {
          "indexed": false,
          "internalType": "uint256",
          "name": "minimum_tip",
          "type": "uint256"
        }
      ],
      "name": "added_image",
      "type": "event"
    },
    {
      "anonymous": false,
      "inputs": [
        {
          "indexed": false,
          "internalType": "uint256",
          "name": "image_id",
          "type": "uint256"
        },
        {
          "indexed": false,
          "internalType": "string",
          "name": "name",
          "type": "string"
        },
        {
          "indexed": false,
          "internalType": "uint256",
          "name": "tip_amount",
          "type": "uint256"
        },
        {
          "indexed": false,
          "internalType": "uint256",
          "name": "total_tip",
          "type": "uint256"
        },
        {
          "indexed": false,
          "internalType": "address payable",
          "name": "author",
          "type": "address"
        },
        {
          "indexed": false,
          "internalType": "address",
          "name": "tipper",
          "type": "address"
        }
      ],
      "name": "tipped_image",
      "type": "event"
    },
    {
      "constant": true,
      "inputs": [],
      "name": "image_count",
      "outputs": [
        {
          "internalType": "uint256",
          "name": "",
          "type": "uint256"
        }
      ],
      "payable": false,
      "stateMutability": "view",
      "type": "function"
    },
    {
      "constant": true,
      "inputs": [
        {
          "internalType": "uint256",
          "name": "",
          "type": "uint256"
        }
      ],
      "name": "images",
      "outputs": [
        {
          "internalType": "uint256",
          "name": "image_id",
          "type": "uint256"
        },
        {
          "internalType": "string",
          "name": "name",
          "type": "string"
        },
        {
          "internalType": "string",
          "name": "description",
          "type": "string"
        },
        {
          "internalType": "string",
          "name": "hash",
          "type": "string"
        },
        {
          "internalType": "address payable",
          "name": "author",
          "type": "address"
        },
        {
          "internalType": "uint256",
          "name": "minimum_tip",
          "type": "uint256"
        },
        {
          "internalType": "uint256",
          "name": "total_tip",
          "type": "uint256"
        },
        {
          "internalType": "uint256",
          "name": "date",
          "type": "uint256"
        }
      ],
      "payable": false,
      "stateMutability": "view",
      "type": "function"
    },
    {
      "constant": false,
      "inputs": [
        {
          "internalType": "string",
          "name": "_hash",
          "type": "string"
        },
        {
          "internalType": "string",
          "name": "_name",
          "type": "string"
        },
        {
          "internalType": "string",
          "name": "_description",
          "type": "string"
        },
        {
          "internalType": "address payable",
          "name": "_author",
          "type": "address"
        }
      ],
      "name": "upload_image",
      "outputs": [],
      "payable": true,
      "stateMutability": "payable",
      "type": "function"
    },
    {
      "constant": false,
      "inputs": [
        {
          "internalType": "uint256",
          "name": "_image_id",
          "type": "uint256"
        }
      ],
      "name": "tip_image",
      "outputs": [],
      "payable": true,
      "stateMutability": "payable",
      "type": "function"
    }
  ],
  "bytecode": "0x60806040526000805534801561001457600080fd5b5061114d806100246000396000f3fe60806040526004361061003f5760003560e01c80631aac27b3146100445780633da981821461006f5780634c2afa8a1461027857806384856482146102a6575b600080fd5b34801561005057600080fd5b50610059610481565b6040518082815260200191505060405180910390f35b6102766004803603608081101561008557600080fd5b81019080803590602001906401000000008111156100a257600080fd5b8201836020820111156100b457600080fd5b803590602001918460018302840111640100000000831117156100d657600080fd5b91908080601f016020809104026020016040519081016040528093929190818152602001838380828437600081840152601f19601f8201169050808301925050505050505091929192908035906020019064010000000081111561013957600080fd5b82018360208201111561014b57600080fd5b8035906020019184600183028401116401000000008311171561016d57600080fd5b91908080601f016020809104026020016040519081016040528093929190818152602001838380828437600081840152601f19601f820116905080830192505050505050509192919290803590602001906401000000008111156101d057600080fd5b8201836020820111156101e257600080fd5b8035906020019184600183028401116401000000008311171561020457600080fd5b91908080601f016020809104026020016040519081016040528093929190818152602001838380828437600081840152601f19601f820116905080830192505050505050509192919290803573ffffffffffffffffffffffffffffffffffffffff169060200190929190505050610487565b005b6102a46004803603602081101561028e57600080fd5b8101908080359060200190929190505050610762565b005b3480156102b257600080fd5b506102df600480360360208110156102c957600080fd5b8101908080359060200190929190505050610d89565b604051808981526020018060200180602001806020018873ffffffffffffffffffffffffffffffffffffffff1673ffffffffffffffffffffffffffffffffffffffff16815260200187815260200186815260200185815260200184810384528b818151815260200191508051906020019080838360005b83811015610371578082015181840152602081019050610356565b50505050905090810190601f16801561039e5780820380516001836020036101000a031916815260200191505b5084810383528a818151815260200191508051906020019080838360005b838110156103d75780820151818401526020810190506103bc565b50505050905090810190601f1680156104045780820380516001836020036101000a031916815260200191505b50848103825289818151815260200191508051906020019080838360005b8381101561043d578082015181840152602081019050610422565b50505050905090810190601f16801561046a5780820380516001836020036101000a031916815260200191505b509b50505050505050505050505060405180910390f35b60005481565b60008081548092919060010191905055506104a0610fb9565b60405180610100016040528060005481526020018581526020018481526020018681526020018373ffffffffffffffffffffffffffffffffffffffff16815260200134815260200160008152602001428152509050806001600080548152602001908152602001600020600082015181600001556020820151816001019080519060200190610530929190611014565b50604082015181600201908051906020019061054d929190611014565b50606082015181600301908051906020019061056a929190611014565b5060808201518160040160006101000a81548173ffffffffffffffffffffffffffffffffffffffff021916908373ffffffffffffffffffffffffffffffffffffffff16021790555060a0820151816005015560c0820151816006015560e082015181600701559050507ffbe2eec8ac13e9d7ae615e495aef881cbddc6c8e2707ee0b58ff9d800a063b206000548585883460405180868152602001806020018060200180602001858152602001848103845288818151815260200191508051906020019080838360005b8381101561064f578082015181840152602081019050610634565b50505050905090810190601f16801561067c5780820380516001836020036101000a031916815260200191505b50848103835287818151815260200191508051906020019080838360005b838110156106b557808201518184015260208101905061069a565b50505050905090810190601f1680156106e25780820380516001836020036101000a031916815260200191505b50848103825286818151815260200191508051906020019080838360005b8381101561071b578082015181840152602081019050610700565b50505050905090810190601f1680156107485780820380516001836020036101000a031916815260200191505b509850505050505050505060405180910390a15050505050565b600081116107d8576040517f08c379a000000000000000000000000000000000000000000000000000000000815260040180806020018281038252601b8152602001807f496d6167652069642073686f756c6420626520706f736974697665000000000081525060200191505060405180910390fd5b600054811115610833576040517f08c379a000000000000000000000000000000000000000000000000000000000815260040180806020018281038252603c8152602001806110ba603c913960400191505060405180910390fd5b600034905060008111610891576040517f08c379a00000000000000000000000000000000000000000000000000000000081526004018080602001828103825260238152602001806110f66023913960400191505060405180910390fd5b610899610fb9565b600160008481526020019081526020016000206040518061010001604052908160008201548152602001600182018054600181600116156101000203166002900480601f01602080910402602001604051908101604052809291908181526020018280546001816001161561010002031660029004801561095b5780601f106109305761010080835404028352916020019161095b565b820191906000526020600020905b81548152906001019060200180831161093e57829003601f168201915b50505050508152602001600282018054600181600116156101000203166002900480601f0160208091040260200160405190810160405280929190818152602001828054600181600116156101000203166002900480156109fd5780601f106109d2576101008083540402835291602001916109fd565b820191906000526020600020905b8154815290600101906020018083116109e057829003601f168201915b50505050508152602001600382018054600181600116156101000203166002900480601f016020809104026020016040519081016040528092919081815260200182805460018160011615610100020316600290048015610a9f5780601f10610a7457610100808354040283529160200191610a9f565b820191906000526020600020905b815481529060010190602001808311610a8257829003601f168201915b505050505081526020016004820160009054906101000a900473ffffffffffffffffffffffffffffffffffffffff1673ffffffffffffffffffffffffffffffffffffffff1673ffffffffffffffffffffffffffffffffffffffff168152602001600582015481526020016006820154815260200160078201548152505090506000816080015190508073ffffffffffffffffffffffffffffffffffffffff166108fc849081150290604051600060405180830381858888f19350505050158015610b6d573d6000803e3d6000fd5b50828260c00181815101915081815250508160016000868152602001908152602001600020600082015181600001556020820151816001019080519060200190610bb8929190611014565b506040820151816002019080519060200190610bd5929190611014565b506060820151816003019080519060200190610bf2929190611014565b5060808201518160040160006101000a81548173ffffffffffffffffffffffffffffffffffffffff021916908373ffffffffffffffffffffffffffffffffffffffff16021790555060a0820151816005015560c0820151816006015560e082015181600701559050507ff93397bc1e44fbbdc53ac8080cf468d77e1476d8b5ec96ab2cf523a153df060782600001518360200151858560c00151853360405180878152602001806020018681526020018581526020018473ffffffffffffffffffffffffffffffffffffffff1673ffffffffffffffffffffffffffffffffffffffff1681526020018373ffffffffffffffffffffffffffffffffffffffff1673ffffffffffffffffffffffffffffffffffffffff168152602001828103825287818151815260200191508051906020019080838360005b83811015610d44578082015181840152602081019050610d29565b50505050905090810190601f168015610d715780820380516001836020036101000a031916815260200191505b5097505050505050505060405180910390a150505050565b6001602052806000526040600020600091509050806000015490806001018054600181600116156101000203166002900480601f016020809104026020016040519081016040528092919081815260200182805460018160011615610100020316600290048015610e3b5780601f10610e1057610100808354040283529160200191610e3b565b820191906000526020600020905b815481529060010190602001808311610e1e57829003601f168201915b505050505090806002018054600181600116156101000203166002900480601f016020809104026020016040519081016040528092919081815260200182805460018160011615610100020316600290048015610ed95780601f10610eae57610100808354040283529160200191610ed9565b820191906000526020600020905b815481529060010190602001808311610ebc57829003601f168201915b505050505090806003018054600181600116156101000203166002900480601f016020809104026020016040519081016040528092919081815260200182805460018160011615610100020316600290048015610f775780601f10610f4c57610100808354040283529160200191610f77565b820191906000526020600020905b815481529060010190602001808311610f5a57829003601f168201915b5050505050908060040160009054906101000a900473ffffffffffffffffffffffffffffffffffffffff16908060050154908060060154908060070154905088565b60405180610100016040528060008152602001606081526020016060815260200160608152602001600073ffffffffffffffffffffffffffffffffffffffff1681526020016000815260200160008152602001600081525090565b828054600181600116156101000203166002900490600052602060002090601f016020900481019282601f1061105557805160ff1916838001178555611083565b82800160010185558215611083579182015b82811115611082578251825591602001919060010190611067565b5b5090506110909190611094565b5090565b6110b691905b808211156110b257600081600090555060010161109a565b5090565b9056fe496d6167652069642073686f756c64206265206c657373207468616e206f7220657175616c20746f2063757272656e7420696d61676520636f756e7454697020616d6f756e742073686f756c642062652067726561746572207468616e2030a265627a7a723158207b9ecbad651fbf0d2e7493ab64e0bedbb9beb6c32613af668c8295d90e44943064736f6c63430005100032",
  "source": "// SPDX-License-Identifier: MIT\npragma solidity >=0.4.22 <0.9.0;\n\ncontract Decentragram {\n\n  struct Image{\n    uint image_id;\n    string name;\n    string description;\n    string hash;\n    address payable author;\n    uint minimum_tip;\n    uint total_tip;\n    uint date;\n  }\n\n  uint public image_count = 0;\n  mapping (uint=>Image) public images;\n\n  event added_image(uint image_id,string name,string description,string hash,uint minimum_tip);\n  event tipped_image(uint image_id,string name,uint tip_amount,uint total_tip,address payable author,address tipper);\n  \n  \n  function upload_image(string memory _hash,string memory _name,string memory _description,address payable _author) public payable{\n\n    //Create an new image instance\n    image_count++;\n    Image memory new_image = Image(image_count,_name,_description,_hash,_author,msg.value,0,block.timestamp);\n\n    //Add the image to the mapping\n    images[image_count] = new_image;\n\n    //Emit an event \n    emit added_image(image_count,_name,_description,_hash,msg.value);\n  }\n\n  function tip_image(uint _image_id) public payable{\n\n    //Checking if teh image exists\n    require(_image_id > 0,\"Image id should be positive\");\n    require(_image_id <= image_count,\"Image id should be less than or equal to current image count\");\n\n    //Extract the tip amount and check if it is valid \n    uint _tip_amount = msg.value;\n    require(_tip_amount > 0,\"Tip amount should be greater than 0\");\n\n    //find the image with the given image id\n    Image memory image = images[_image_id];\n    \n    //Send the tip to the author of the image\n    address payable _author = image.author;\n    _author.transfer(_tip_amount);\n\n    //Add the tip amount to the total tip of the image\n    image.total_tip += _tip_amount;\n\n    //Update the image in the mapping\n    images[_image_id] = image;\n\n    //emit an event \n    emit tipped_image(image.image_id,image.name, _tip_amount,image.total_tip,_author,msg.sender);\n  }\n\n}\n",
  "sourcePath": "C:\\Users\\Kailash\\Desktop\\All Projects\\Decentragram\\contracts\\Decentragram.sol",
  "compiler": {
    "name": "solc",
    "version": "0.5.16+commit.9c3226ce.Emscripten.clang"
  },
  "schemaVersion": "3.4.3",
  "updatedAt": "2021-11-15T22:16:50.929Z",
  "networkType": "ethereum",
  "devdoc": {
    "methods": {}
  },
  "userdoc": {
    "methods": {}
  }
}