{
  "contractName": "Decentragram",
  "abi": [
    {
      "anonymous": false,
      "inputs": [
        {
          "indexed": false,
          "internalType": "uint256",
          "name": "image_id",
          "type": "uint256"
        },
        {
          "indexed": false,
          "internalType": "string",
          "name": "name",
          "type": "string"
        },
        {
          "indexed": false,
          "internalType": "string",
          "name": "description",
          "type": "string"
        },
        {
          "indexed": false,
          "internalType": "string",
          "name": "hash",
          "type": "string"
        }
      ],
      "name": "added_image",
      "type": "event"
    },
    {
      "anonymous": false,
      "inputs": [
        {
          "indexed": false,
          "internalType": "uint256",
          "name": "image_id",
          "type": "uint256"
        },
        {
          "indexed": false,
          "internalType": "string",
          "name": "name",
          "type": "string"
        },
        {
          "indexed": false,
          "internalType": "uint256",
          "name": "tip_amount",
          "type": "uint256"
        },
        {
          "indexed": false,
          "internalType": "uint256",
          "name": "total_tip",
          "type": "uint256"
        }
      ],
      "name": "tipped_image",
      "type": "event"
    },
    {
      "constant": true,
      "inputs": [],
      "name": "image_count",
      "outputs": [
        {
          "internalType": "uint256",
          "name": "",
          "type": "uint256"
        }
      ],
      "payable": false,
      "stateMutability": "view",
      "type": "function"
    },
    {
      "constant": true,
      "inputs": [
        {
          "internalType": "uint256",
          "name": "",
          "type": "uint256"
        }
      ],
      "name": "images",
      "outputs": [
        {
          "internalType": "uint256",
          "name": "image_id",
          "type": "uint256"
        },
        {
          "internalType": "string",
          "name": "name",
          "type": "string"
        },
        {
          "internalType": "string",
          "name": "description",
          "type": "string"
        },
        {
          "internalType": "string",
          "name": "hash",
          "type": "string"
        },
        {
          "internalType": "address payable",
          "name": "author",
          "type": "address"
        },
        {
          "internalType": "uint256",
          "name": "minimum_tip",
          "type": "uint256"
        },
        {
          "internalType": "uint256",
          "name": "total_tip",
          "type": "uint256"
        },
        {
          "internalType": "uint256",
          "name": "date",
          "type": "uint256"
        }
      ],
      "payable": false,
      "stateMutability": "view",
      "type": "function"
    },
    {
      "constant": false,
      "inputs": [
        {
          "internalType": "string",
          "name": "_hash",
          "type": "string"
        },
        {
          "internalType": "string",
          "name": "_name",
          "type": "string"
        },
        {
          "internalType": "string",
          "name": "_description",
          "type": "string"
        },
        {
          "internalType": "address payable",
          "name": "_author",
          "type": "address"
        },
        {
          "internalType": "uint256",
          "name": "_minimum_tip",
          "type": "uint256"
        }
      ],
      "name": "upload_image",
      "outputs": [],
      "payable": true,
      "stateMutability": "payable",
      "type": "function"
    },
    {
      "constant": false,
      "inputs": [
        {
          "internalType": "uint256",
          "name": "_image_id",
          "type": "uint256"
        }
      ],
      "name": "tip_image",
      "outputs": [],
      "payable": true,
      "stateMutability": "payable",
      "type": "function"
    }
  ],
  "bytecode": "0x60806040526000805534801561001457600080fd5b506110e8806100246000396000f3fe60806040526004361061003f5760003560e01c80631aac27b3146100445780634c2afa8a1461006f578063757446511461009d57806384856482146102b0575b600080fd5b34801561005057600080fd5b5061005961048b565b6040518082815260200191505060405180910390f35b61009b6004803603602081101561008557600080fd5b8101908080359060200190929190505050610491565b005b6102ae600480360360a08110156100b357600080fd5b81019080803590602001906401000000008111156100d057600080fd5b8201836020820111156100e257600080fd5b8035906020019184600183028401116401000000008311171561010457600080fd5b91908080601f016020809104026020016040519081016040528093929190818152602001838380828437600081840152601f19601f8201169050808301925050505050505091929192908035906020019064010000000081111561016757600080fd5b82018360208201111561017957600080fd5b8035906020019184600183028401116401000000008311171561019b57600080fd5b91908080601f016020809104026020016040519081016040528093929190818152602001838380828437600081840152601f19601f820116905080830192505050505050509192919290803590602001906401000000008111156101fe57600080fd5b82018360208201111561021057600080fd5b8035906020019184600183028401116401000000008311171561023257600080fd5b91908080601f016020809104026020016040519081016040528093929190818152602001838380828437600081840152601f19601f820116905080830192505050505050509192919290803573ffffffffffffffffffffffffffffffffffffffff16906020019092919080359060200190929190505050610a50565b005b3480156102bc57600080fd5b506102e9600480360360208110156102d357600080fd5b8101908080359060200190929190505050610d24565b604051808981526020018060200180602001806020018873ffffffffffffffffffffffffffffffffffffffff1673ffffffffffffffffffffffffffffffffffffffff16815260200187815260200186815260200185815260200184810384528b818151815260200191508051906020019080838360005b8381101561037b578082015181840152602081019050610360565b50505050905090810190601f1680156103a85780820380516001836020036101000a031916815260200191505b5084810383528a818151815260200191508051906020019080838360005b838110156103e15780820151818401526020810190506103c6565b50505050905090810190601f16801561040e5780820380516001836020036101000a031916815260200191505b50848103825289818151815260200191508051906020019080838360005b8381101561044757808201518184015260208101905061042c565b50505050905090810190601f1680156104745780820380516001836020036101000a031916815260200191505b509b50505050505050505050505060405180910390f35b60005481565b60008111610507576040517f08c379a000000000000000000000000000000000000000000000000000000000815260040180806020018281038252601b8152602001807f496d6167652069642073686f756c6420626520706f736974697665000000000081525060200191505060405180910390fd5b600054811115610562576040517f08c379a000000000000000000000000000000000000000000000000000000000815260040180806020018281038252603c815260200180611055603c913960400191505060405180910390fd5b6000349050600081116105c0576040517f08c379a00000000000000000000000000000000000000000000000000000000081526004018080602001828103825260238152602001806110916023913960400191505060405180910390fd5b6105c8610f54565b600160008481526020019081526020016000206040518061010001604052908160008201548152602001600182018054600181600116156101000203166002900480601f01602080910402602001604051908101604052809291908181526020018280546001816001161561010002031660029004801561068a5780601f1061065f5761010080835404028352916020019161068a565b820191906000526020600020905b81548152906001019060200180831161066d57829003601f168201915b50505050508152602001600282018054600181600116156101000203166002900480601f01602080910402602001604051908101604052809291908181526020018280546001816001161561010002031660029004801561072c5780601f106107015761010080835404028352916020019161072c565b820191906000526020600020905b81548152906001019060200180831161070f57829003601f168201915b50505050508152602001600382018054600181600116156101000203166002900480601f0160208091040260200160405190810160405280929190818152602001828054600181600116156101000203166002900480156107ce5780601f106107a3576101008083540402835291602001916107ce565b820191906000526020600020905b8154815290600101906020018083116107b157829003601f168201915b505050505081526020016004820160009054906101000a900473ffffffffffffffffffffffffffffffffffffffff1673ffffffffffffffffffffffffffffffffffffffff1673ffffffffffffffffffffffffffffffffffffffff168152602001600582015481526020016006820154815260200160078201548152505090506000816080015190508073ffffffffffffffffffffffffffffffffffffffff166108fc849081150290604051600060405180830381858888f1935050505015801561089c573d6000803e3d6000fd5b50828260c001818151019150818152505081600160008681526020019081526020016000206000820151816000015560208201518160010190805190602001906108e7929190610faf565b506040820151816002019080519060200190610904929190610faf565b506060820151816003019080519060200190610921929190610faf565b5060808201518160040160006101000a81548173ffffffffffffffffffffffffffffffffffffffff021916908373ffffffffffffffffffffffffffffffffffffffff16021790555060a0820151816005015560c0820151816006015560e082015181600701559050507ffcc46e531c984f27ba98715b7edb40a9630c8c96ac66d6c8880518352161b7d882600001518360200151858560c001516040518085815260200180602001848152602001838152602001828103825285818151815260200191508051906020019080838360005b83811015610a0d5780820151818401526020810190506109f2565b50505050905090810190601f168015610a3a5780820380516001836020036101000a031916815260200191505b509550505050505060405180910390a150505050565b6000808154809291906001019190505550610a69610f54565b60405180610100016040528060005481526020018681526020018581526020018781526020018473ffffffffffffffffffffffffffffffffffffffff16815260200183815260200160008152602001428152509050806001600080548152602001908152602001600020600082015181600001556020820151816001019080519060200190610af9929190610faf565b506040820151816002019080519060200190610b16929190610faf565b506060820151816003019080519060200190610b33929190610faf565b5060808201518160040160006101000a81548173ffffffffffffffffffffffffffffffffffffffff021916908373ffffffffffffffffffffffffffffffffffffffff16021790555060a0820151816005015560c0820151816006015560e082015181600701559050507f0caac7a293f2ef2b2f238b0c91f5ad7b7d4e52c04dc4b4c9ab64cbd2fde9339f60005486868960405180858152602001806020018060200180602001848103845287818151815260200191508051906020019080838360005b83811015610c11578082015181840152602081019050610bf6565b50505050905090810190601f168015610c3e5780820380516001836020036101000a031916815260200191505b50848103835286818151815260200191508051906020019080838360005b83811015610c77578082015181840152602081019050610c5c565b50505050905090810190601f168015610ca45780820380516001836020036101000a031916815260200191505b50848103825285818151815260200191508051906020019080838360005b83811015610cdd578082015181840152602081019050610cc2565b50505050905090810190601f168015610d0a5780820380516001836020036101000a031916815260200191505b5097505050505050505060405180910390a1505050505050565b6001602052806000526040600020600091509050806000015490806001018054600181600116156101000203166002900480601f016020809104026020016040519081016040528092919081815260200182805460018160011615610100020316600290048015610dd65780601f10610dab57610100808354040283529160200191610dd6565b820191906000526020600020905b815481529060010190602001808311610db957829003601f168201915b505050505090806002018054600181600116156101000203166002900480601f016020809104026020016040519081016040528092919081815260200182805460018160011615610100020316600290048015610e745780601f10610e4957610100808354040283529160200191610e74565b820191906000526020600020905b815481529060010190602001808311610e5757829003601f168201915b505050505090806003018054600181600116156101000203166002900480601f016020809104026020016040519081016040528092919081815260200182805460018160011615610100020316600290048015610f125780601f10610ee757610100808354040283529160200191610f12565b820191906000526020600020905b815481529060010190602001808311610ef557829003601f168201915b5050505050908060040160009054906101000a900473ffffffffffffffffffffffffffffffffffffffff16908060050154908060060154908060070154905088565b60405180610100016040528060008152602001606081526020016060815260200160608152602001600073ffffffffffffffffffffffffffffffffffffffff1681526020016000815260200160008152602001600081525090565b828054600181600116156101000203166002900490600052602060002090601f016020900481019282601f10610ff057805160ff191683800117855561101e565b8280016001018555821561101e579182015b8281111561101d578251825591602001919060010190611002565b5b50905061102b919061102f565b5090565b61105191905b8082111561104d576000816000905550600101611035565b5090565b9056fe496d6167652069642073686f756c64206265206c657373207468616e206f7220657175616c20746f2063757272656e7420696d61676520636f756e7454697020616d6f756e742073686f756c642062652067726561746572207468616e2030a265627a7a72315820dd24440d817664d35ec43ed18b0ca4e26a6b218b506d68021aab31d408e4003e64736f6c63430005100032",
  "source": "// SPDX-License-Identifier: MIT\npragma solidity >=0.4.22 <0.9.0;\n\ncontract Decentragram {\n\n  struct Image{\n    uint image_id;\n    string name;\n    string description;\n    string hash;\n    address payable author;\n    uint minimum_tip;\n    uint total_tip;\n    uint date;\n  }\n\n  uint public image_count = 0;\n  mapping (uint=>Image) public images;\n\n  event added_image(uint image_id,string name,string description,string hash);\n  event tipped_image(uint image_id,string name,uint tip_amount,uint total_tip);\n  \n  \n  function upload_image(string memory _hash,string memory _name,string memory _description,address payable _author,uint _minimum_tip) public payable{\n\n    //Create an new image instance\n    image_count++;\n    Image memory new_image = Image(image_count,_name,_description,_hash,_author,_minimum_tip,0,block.timestamp);\n\n    //Add the image to the mapping\n    images[image_count] = new_image;\n\n    //Emit an event \n    emit added_image(image_count,_name,_description,_hash);\n  }\n\n  function tip_image(uint _image_id) public payable{\n\n    //Checking if teh image exists\n    require(_image_id > 0,\"Image id should be positive\");\n    require(_image_id <= image_count,\"Image id should be less than or equal to current image count\");\n\n    //Extract the tip amount and check if it is valid \n    uint _tip_amount = msg.value;\n    require(_tip_amount > 0,\"Tip amount should be greater than 0\");\n\n    //find the image with the given image id\n    Image memory image = images[_image_id];\n    \n    //Send the tip to the author of the image\n    address payable _author = image.author;\n    _author.transfer(_tip_amount);\n\n    //Add the tip amount to the total tip of the image\n    image.total_tip += _tip_amount;\n\n    //Update the image in the mapping\n    images[_image_id] = image;\n\n    //emit an event \n    emit tipped_image(image.image_id,image.name, _tip_amount,image.total_tip);\n  }\n\n}\n",
  "sourcePath": "C:\\Users\\Kailash\\Desktop\\All Projects\\Decentragram\\contracts\\Decentragram.sol",
  "compiler": {
    "name": "solc",
    "version": "0.5.16+commit.9c3226ce.Emscripten.clang"
  },
  "schemaVersion": "3.4.3",
  "updatedAt": "2021-11-15T14:49:55.879Z",
  "networkType": "ethereum",
  "devdoc": {
    "methods": {}
  },
  "userdoc": {
    "methods": {}
  }
}